:10000000000302202D2800002928000029280000D4
:1000100029280000292800002928000000000000ED
:10002000000000000000000000000000292800007F
:1000300029280000000000002928000025280000D1
:10004000292800002928000029280000292800006C
:10005000292800002928000029280000292800005C
:10006000292800002928000029280000292800004C
:10007000292800002928000029280000292800003C
:10008000292800002928000029280000292800002C
:10009000292800002928000029280000292800001C
:1000A000292800002928000029280000292800000C
:1000B000292800002928000029280000A51F000089
:1000C00029280000292800002928000029280000EC
:1000D00029280000292800002928000029280000DC
:1000E00029280000292800002928000029280000CC
:1000F000000000002928000029280000292800000D
:1001000029280000292800002928000029280000AB
:10011000292800002928000029280000292800009B
:10012000292800002928000029280000292800008B
:10013000292800002928000029280000292800007B
:10014000292800002928000029280000292800006B
:1001500029280000292800000000000000000000FD
:10016000000000000000000000000000000000008F
:10017000000000000000000000000000000000007F
:10018000292800002928000029280000292800002B
:10019000000000002928000029280000292800006C
:1001A000292800002928000029280000292800000B
:1001B00029280000292800002928000029280000FB
:1001C00029280000292800002928000029280000EB
:1001D00029280000292800002928000029280000DB
:1001E00029280000292800002928000029280000CB
:1001F00029280000292800002928000029280000BB
:10020000292800000000000000000000292800004C
:10021000292800002928000029280000292800009A
:10022000292800002928000029280000292800008A
:10023000292800002928000029280000292800007A
:10024000292800002928000029280000292800006A
:10025000292800002928000029280000292800005A
:1002600000000000002A0FDD024405E000F8013B19
:10027000824201F1010107D00B78002BF6D1202337
:1002800000F8013B8242F7D1704700BF2DE9F047EB
:100290000D4604464FF400720021284602F0F8FA99
:1002A00024BB6C4CAE4604F13006A446BCE80F00FB
:1002B000B445CEF80000CEF80410CEF80820CEF8F1
:1002C0000C3004F110040EF1100EEED107CC4AF6FA
:1002D0005523CEF800002088CEF80410CEF8082070
:1002E000AEF80C00A5F8FE31BDE8F0877E2C24D8CE
:1002F000621E3E2A88BFA4F14002002A47D01302A2
:10030000C2EBC25203F5807C05EB422040F6030E9F
:1003100003E05A1C94451346E6D01A1FB2F5006F4D
:10032000F7D2734503F1010214BF91B24FF6FF718A
:1003300020F8131008BF5A1CECE7822C32D9A4F124
:100340008303012B78D9853C2102B1F5002FCBD254
:10035000414B2B6003F1144303F52C1303F60233D6
:100360006B603E4BC5F8FC313D4B6C614FF4006057
:100370004FF48072C5E90603C5E903124FF4005338
:10038000AB6005F12000BDE8F04702F089BA2B46CA
:10039000F02103F8011B4FF0FF31C5F8011059603F
:1003A0001972ACE77F2C9FD152232E492A4605F1C2
:1003B0000B003BB1013102F8013B824204D00B78C3
:1003C000002BF7D12023F6E72823DFF89C80EB727F
:1003D00002272B356FF0660A4FF04D09D8F80C0054
:1003E000A5F10B06444620B302F068FAF06177836A
:1003F000324605E002F8013BAA4204F1010407D0AD
:100400002378002BF6D1202302F8013BAA42F7D132
:100410000137BFB2052F86F810A086F8119086F834
:1004200018A086F8199008F1100805F12005D5D11B
:100430005AE74FF48010D9E70B4A02EB0313DC684C
:10044000204602F03BFA214602462846BDE8F04726
:1004500002F026BACC2800005546320A306FB10AA5
:1004600060441155F72800000C29000010B50C4617
:100470003B492068884282B001D002B010BD01F132
:100480001441606801F52C1101F602318842F4D163
:100490003449D4F8FC018842EFD1A168880404D51E
:1004A0003148D4F81CC08445E7D1C90703D4216979
:1004B000B1F5807F34D0002B45D0A169002942D00E
:1004C0001868814208D040F6630C614501D80028C5
:1004D00043D04FF0FF311960616940F663008142FB
:1004E000CBD801F0070403EBD101012091F808C03B
:1004F000A04010EA0C0F5C685FFA80FE05D14CEA60
:100500000E0C013481F808C05C601B68A342B4D8AB
:10051000002AB2D1154B164A1B681E331360ACE794
:10052000E068C1B20029C6D1A0F58041B1F5F82F2D
:10053000C1D204F12001CDE9002300F0DBFADDE9AE
:100540000023002BB9D1002A97D1084B084A1B6819
:1005500003F59673136002B010BD1960BCE700BFCD
:100560005546320A306FB10A60441155F4420120F9
:10057000F042012080B50646E4B072B6BFF35F8F4B
:100580004FF082434849002440F2FF329A820DA87E
:100590009A838C604422214602F07AF94FF48C72DF
:1005A00021461EA802F074F902238DF836307378C4
:1005B000F168079403F00F037370B3788DF820404F
:1005C00003F00F03B370394B059373680693012250
:1005D0001EAB40F6FF70FFF749FFB3688BB1B278EE
:1005E000F0680DAB4FF4007100F076FC1EAB04F523
:1005F0008050F1680122FFF739FFB36801349C4253
:10060000EDD372782A4FDFF8A48001230D2105A8CD
:1006100000F074FC0024B5780DAB2A4601210020BF
:1006200000F0E6FB002835D00DAB2A461F2105A8B7
:1006300000F0DEFBDDE906129DF823300392002472
:10064000CDE901818DF81040EBB12A2B29D1BDF8FD
:100650002A506DBAADB2B56095B1B278F0680DAB05
:100660004FF4007100F038FC1EAB04F58050F168C7
:100670000122FFF7FBFEB36801349C42EDD3039ADD
:10068000A2EB45220392727801230D2101A800F00C
:1006900035FCBFE7BC4201D80134BCE701F0E4FE01
:1006A000FAE701F00BFFEEE700ED00E0534253558F
:1006B000A0860100F8B504220E4600F063FC8642D5
:1006C00019D1194C194D1A4F7A686A600023C4E990
:1006D0000033C4E9023323822B73AB6813489B1B9E
:1006E000AB60F02323700A23E371BDE8F8400422D5
:1006F0000D2100F047BC0C4C0C4D0D4F0023C4E9FC
:100700000033C4E902332382F02323700A23E37108
:1007100001232B7304227B68A2700D2128466B6095
:1007200000F030FCD0E700BF2405002024000020AA
:10073000380500201F4A002310B5C2E90033C2E982
:1007400002331D4C136178B3E17D02F1080E0823DA
:1007500094F811C00CF03F0CBCF11C0F0ED0BCF192
:100760003F0F0BD0994228BF1946B0B1023B1B0284
:100770001380BDE810400F48FFF79CBF0C33DBB27D
:1007800040F61C24AEF8004099424FF005048EF864
:10079000034028BF19460028E8D1013B1370BDE88B
:1007A00010400448FFF786BFE17C02F1040E0423E9
:1007B000CEE700BFF8010020380500202DE9F84FF2
:1007C000DFF8B480B8F816B0D8F811309BFA9BFB6C
:1007D0001FFA8BFBBBF1000F32D0284D284E074685
:1007E00093FA83F9002410E05046FFF74FFD0422EE
:1007F0004FF40071284600F0C5FBB3680134A3F53F
:100800000073A345B360B4461CD000F0DBFB844604
:10081000052229463B462846BCF1000F2AD009EBA9
:10082000040A002FE0D14FF4007100F055FB154B86
:100830003A4629465046FFF719FE01F07BFEDCE7F9
:10084000DFF83CC0104BD8F80440CCF8044000213D
:10085000C3E90011C3E90211F0221A700A221982B9
:10086000DA718CF80C10BDE8F84F054804220D2110
:1008700000F088BBBDE8F88F380500202403002075
:10088000240000200C0200202405002070B584B054
:1008900001F070F8002305220121184600F0A8FAA3
:1008A00008B904B070BD534C534D002305221F21DD
:1008B000204600F09DFAE37BA668AE605A2B45D82F
:1008C000DFE803F02E44448F444444444444444409
:1008D0004444444444447E44444444444444892E6F
:1008E00044442E444444445A446A444476447C4438
:1008F0004444442E444444444444444444444444CE
:1009000044444444444444444444444444444444A7
:10091000444444444444444444444444444495008A
:10092000364B646834480021F022C3E90211C3E960
:1009300000111A700A22DA711982042229730D211A
:100940006C6004B0BDE8704000F01CBB2B4B6468C9
:1009500029480022F021C3E90022C3E902221A82B9
:10096000197001220A21D9712A7305214FF400520E
:100970009A8199700422E2E7214A07CA01AB0C2E42
:1009800083E8070088BF0C224FF00C01184688BF8F
:10099000AA60FFF78FFE84E71A481B4A4FF4003322
:1009A000C0E90023082104B0BDE87040FFF782BE13
:1009B000012004B0BDE87040FFF700BF0020F8E759
:1009C000124913481822FFF74DFCE17C11482429F5
:1009D00028BF2421E7E7002004B0BDE87040FFF7FE
:1009E000A9BEE17C0548122928BF1221DBE70120BE
:1009F000F2E700BF38050020240000202405002075
:100A00003C2A0000F001002000003E7FDC290000AD
:100A1000080000200000002072B6BFF35F8F4FF087
:100A20008243044940F2FF3200209A829A83886010
:100A3000704700BF00ED00E0B0F5002F0FD2084B6B
:100A40004AF201515A8AD207FCD5586199805A8AD4
:100A5000D207FCD500F50050B0F5002FF2D3704757
:100A600000400041531E3AB1043851F8042B40F8BD
:100A7000042F013B5A1CF8D1704700BF70B51C4EC3
:100A8000338823F0300304460D4610463380738AC2
:100A9000DB07FCD54AF21553154AB380538AD907B0
:100AA000FCD518B3124A4AF204560428844628BFDB
:100AB0004FF0040C538ADB07FCD5A4F1040E00238D
:100AC0009C4588BF55F8231003F1010398BF4FF0F0
:100AD000FF31042B4EF8041FF2D1B0EB0C0054612F
:100AE00005EB8C05968004EB8C04DED170BD00BF55
:100AF000004000412DE9F04F564B87B01A8842F470
:100B000080421A801A88834642F400421A8000AF5D
:100B1000400B0B1FABF1040201F1FC0602E0B342F3
:100B200000F08B8053F8045F52F8044FA542F6D0D2
:100B3000DFF8249119F800405CB140225846FFF7D5
:100B40009DFF444A538ADB07FCD51C37BD46BDE8F0
:100B5000F08F424DC7F814D02BF4FF5205F1200658
:100B600022F01F0206EB40164FEA401E05EB401331
:100B700004B91C780133B342FAD1ADF5005DEC46FF
:100B800054B30EF1FF36C7E90342C7E901C02E4452
:100B90000CF5005A6346A2EB0C08C7F800E00C46BF
:100BA00003E003F5807353450FD016F8012F002A98
:100BB000F7D008EB030118464FF4807201F070FE85
:100BC000034603F580735345EFD1D7E901C02146B1
:100BD0003A69D7F800E0FC681E4E738ADB07FCD543
:100BE0004AF20153C6F814B0B3801A4E738ADB0779
:100BF000FCD5012309F80030E4B1194B03EB0E08D2
:100C00000EF1FF3E1446ACEB02067544894603E044
:100C1000A84504F580740CD015F8013F002BF7D0DF
:100C2000311920464022FFF729FFA84504F58074BA
:100C3000F2D14946D7F814D07FE7084BCBF3042B09
:100C400003EB401301221C3703F80B20BD46BDE81F
:100C5000F08F00BF00400041580D002058050020D3
:100C60007705002038B54FF08242194B546A1D8831
:100C70006369C3F302738D4203F103034FF0010272
:100C800028BF0D4602FA03F39D42014619D363695A
:100C900043F0004363612161636965F30D036361A0
:100CA00063694FF0824002216FF39B3380226361BE
:100CB00080F8071180F8052190F807319B07FBD5D4
:100CC00038BD04482A4601F0EBFD0249E3E700BFC6
:100CD000980D0020C40E002010B4414B414A93F8F7
:100CE0005800414940F0010083F8580093F83C0057
:100CF00000F0F00083F83C0093F83C0040F007005F
:100D000083F83C0093F8590040F0010083F8590043
:100D100093F83C0000F00F0083F83C0093F83C008F
:100D2000402440F0700083F83C00C2F8A8400B69F2
:100D300043F480630B618B6943F001038B6153685B
:100D40005B07FCD44FF082431A7842F001021A701C
:100D5000997811F00101FBD14FF400024FF082436A
:100D6000D2F88420B3F828C002F01F001F2808BF63
:100D7000052060F38A1CA3F828C0C2F34410B3F81E
:100D800028C01F2808BF1D2060F3040CA3F828C04A
:100D9000C2F38222188D072A08BF032262F30E30A5
:100DA00018851A78114861F3C7121A701A7842F040
:100DB00004021A705862B3F808C061F3830CA3F8F8
:100DC00008C0B3F808C02CF0010C4FEA0C4C4FEAF5
:100DD0001C4CA3F808C010BC4FF4807201F058BD41
:100DE00000800041001C004000080040C00D0020B1
:100DF0002DE9F8434FF082440746D4F824800E468C
:100E00001546002B57D01C46627823789A423ED371
:100E1000A378690108EB4512B3B9201D41F8080019
:100E2000506863F30D005060506801F1824563F330
:100E30009B30506095F804314FF0010C43F04003B3
:100E400085F8043184F802C001F1824999F807312C
:100E500013F0010317D05568A378EDB2022B25706B
:100E600031D0AE4228BF2E461FB366703246384698
:100E7000211D01F015FD0122002389F80721A3702F
:100E80003046BDE8F8831E463046BDE8F8839B1A1D
:100E90009E4228BF1E46002FF6D0211D1144384621
:100EA000324601F0FDFC6378334463703046BDE8A0
:100EB000F8836770DFE7074C02EB021304EB83044F
:100EC00001F0DEFAA0E751F808102A46201D01F0D3
:100ED000E7FCC6E7C00E002071B1F8B5054617461D
:100EE0001E460C462146284633463A46FFF780FF09
:100EF000241A0544F6D1F8BD704700BF70B50E4600
:100F00004FF0824154014D6A05EB4215D3B16B6934
:100F100023F000436B6128616B6966F30D036B611D
:100F20006B6904F1824C6FF39B336B610222802367
:100F30008CF807218CF805319CF807319B07FBD50D
:100F4000304670BD6B69C3F302730333012101FAAC
:100F500003F3B34207D86B69043A18BF012262F366
:100F6000DF736B61D7E701464FF0040C044844235C
:100F700013FB02C303443246184601F091FCCAE752
:100F8000C00E00200023FFF7B9BF00BF4FF0824220
:100F90000B49536A5869196159696FF30D01596119
:100FA00059694FF0020C80206FF39B31596182F830
:100FB00007C182F8050192F807319B07FBD57047FE
:100FC000C40E00202DE9F0434FF0824499B001F0A7
:100FD00057FAA38B13F008032BD00820802211218D
:100FE000A083B64BA27284F80011402184F8051149
:100FF00084F804215A68B24D4FF0030C6CF31E7252
:101000005A605A696CF31E725A61AE4A1A60AE4A4F
:101010001A615A6860F39B325A605A686FF30D0286
:101020005A600023184684F804112B7019B0BDE8EB
:10103000F08394F80721D60607D4A14B187800381E
:1010400018BF012019B0BDE8F083A04DA048AA88C0
:10105000102184F807116E890680402640F2023084
:1010600084F80461824295F80680EF8895F807E0DD
:10107000B5F808C000F0D68112DCB2F5817F00F02F
:10108000AF8129DC822A00F0FF804CDC803A012A03
:101090001CD8022106A8ADF81830FFF7E3FDCCE715
:1010A00040F621118A4245D024DD42F2A1139A4232
:1010B00000F0918100F3B38022F4807340F6212187
:1010C0008B4237D042F221039A4233D04FF0824311
:1010D000202283F80521B0E7B2F5307F00F0BA8016
:1010E00000F3AE80B2F5E07F40F0BD80202384F8AD
:1010F0000531A2E740F281618A421EDCB2F5D06F71
:1011000080F2EC8040F2A1339A4200F0B580B2F553
:10111000A06FDBD1FFF73AFF4FF0824267F07F0309
:10112000DBB2937289E7B2F5807FDFD040F2011322
:101130009A42CBD1FFF72AFF7FE7B2F5086F00F0A4
:10114000B780B2F5106FC1D15D4A01931770FFF7F8
:101150001DFF5A4A032184F84011506C61F31E7040
:10116000506430275B4884F84561106484F820712E
:10117000556B61F31E755563A0F1440C802584F80E
:101180002451C2F830C084F86061D2F874C0019B69
:1011900063F31E7CC2F874C084F8645184F8A01113
:1011A000D2F8A43061F31E73C2F8A43000F1CC036E
:1011B00084F8A561C2F8A03084F88071D2F8943028
:1011C00061F31E73C2F894308830442384F884514C
:1011D000C2F8900084F8C03184F8C46184F8C45126
:1011E000D2F8C40061F31E70C2F8C400D2F8D40073
:1011F00061F31E70C2F8D40084F8E03184F8E46131
:1012000084F8E451D2F8E43061F31E73C2F8E4309C
:10121000D2F8F43061F31E73C2F8F4300DE742F2F5
:1012200021239A4286D04FF6A1639A427FF44EAFB3
:101230000023012106A8ADF81830FFF713FDFCE6E6
:10124000B2F5407F3FF452AF40F201339A423FF48F
:1012500071AF3BE7BCF1070F7FF448AF1E48AA21EE
:10126000FFF700FDE9E640F2A1239A4204D040F2E4
:10127000A1139A427FF42AAF0023082106A8CDE9E2
:101280000633FFF7EFFCD8E61CF0080F7FF42EAF13
:101290000CF00F035B0103F1824303F580731CF034
:1012A000500F9B7914BFC3F34013C3F30013F0E650
:1012B00003480121FFF7D6FCBFE600BFC00D0020A8
:1012C000BD0D0020E4100020C40E0020E01000201E
:1012D000980D00204C0F00203C000020B7F5807FC7
:1012E00000F0B580B7F5007F00F0B680AEF1030ED8
:1012F000BEF11F0F3FF6EAAE01A353F82EF000BF78
:101300009F130000CD100000CD100000CD10000094
:10131000CD100000CD100000CD100000CD10000059
:10132000CD100000CD100000CD100000CD10000049
:1013300095130000CD100000CD100000CD1000006E
:10134000CD100000CD100000CD100000CD10000029
:10135000CD100000CD100000CD100000CD10000019
:10136000CD100000CD100000CD100000CD10000009
:10137000CD100000CD1000008B1300008113000081
:1013800059482121FFF76EFC57E658480921FFF71D
:1013900069FC52E656483921FFF764FC4DE6B8F186
:1013A000030F3FF693AE4822002106A801F070FA21
:1013B00003238DF81930B8F1000F64D1042240F2F4
:1013C00009438DF81820ADF81A309DF8181006A8BA
:1013D000FFF748FC31E647480821FFF743FC2CE6BD
:1013E0001CF00F033FF472AE0CF008023A437FF496
:1013F0006DAE5B0103F182431CF0800F93F8062170
:101400002FD1D0067FF596AE83F8041193F807210B
:1014100092067FF58FAE2021012283F8071183F811
:10142000042187E61CF00F033FF450AE0CF00802D5
:101430003A437FF44BAE5B011CF0800F03F1824313
:101440001ABF202283F8052183F8051172E62A4885
:101450001221FFF707FCF0E528489921FFF702FC6D
:10146000EBE595067FF566AE202283F8042193F81C
:10147000072154067FF55EAE4021022283F8071152
:1014800083F8042156E61E4BDFF878800FCB02ACC0
:1014900084E80F000027A1463E4659F8043B08EBBC
:1014A00006001968012200F0B3FF0137042F06443B
:1014B000F3D10023AA7908F80630134B53F82240E1
:1014C000204601F0FBF9431C5B008DF818302378AF
:1014D000002B3FF47AAF06AA02F8023F14F8013F4E
:1014E000002BF9D171E700BF582A0000C00100208D
:1014F000E8000020340000207C2A000024010020A5
:10150000902A00009C0D0020482A000008B5FFF733
:10151000E3FB054B4FF0824200211970137843F032
:101520000203137008BD00BFBD0D002038B54FF099
:10153000824301225C6A636BC3F3027303330D467B
:101540009A40954204F1200401461AD3636943F09E
:10155000004363612161636965F30D03636163693E
:101560004FF0824C6FF39B336361022280238CF82F
:1015700027218CF825319CF827319B07FBD528467D
:1015800038BD03482A4601F08BF90149E2E700BF64
:10159000080F002038B54FF0824301225C6A636B6C
:1015A000C3F3027303330D469A40954204F12004BD
:1015B00001461AD3636943F00043636121616369A3
:1015C00065F30D03636163694FF0824C6FF39B33E6
:1015D0006361022280238CF827218CF825319CF846
:1015E00027319B07FBD5284638BD03482A4601F022
:1015F00057F90149E2E700BF080F002070B5044623
:101600000D46FFF7DFFC00B970BD294620460023D8
:10161000BDE870400222FFF7EBBB00BF70B5054686
:101620000E46FFF7CFFC00B970BD4EB134462146DF
:10163000284600230222FFF7DBFB241A0544F6D1DB
:10164000304670BD2DE9F047836CB0F84C10002295
:10165000013B90B00646A0F84810A0F84A20082B9D
:1016600000F25581DFE803F01B446E710B748CBFF0
:101670000500D0E9140206F15801FFF7F3F9B06C48
:10168000CDF80100442496F847208DF8004001234E
:1016900040216846FFF732FC10B0BDE8F0874FF4F8
:1016A00080714FF40062C6E914120123F3644FF411
:1016B000A071B1659848F16CB26CF065CDF8051079
:1016C000316D706DCDF80120CDF80910B26DF16D5E
:1016D000CDF811205824CDF80D00CDF8151096F84E
:1016E00047208DF8004040216846FFF707FCD3E70C
:1016F0008A4801F0E3F806F14C07044602468749A0
:10170000384601F0CDF8274496F847800DF10105E1
:10171000261D4FF03F096C463F2EA7EB060100F354
:10172000CC8046F0400328468DF80030324601F068
:10173000B7F80123402142462046FFF7DFFB10B0F7
:10174000BDE8F08700F090FE99E700F0B7FE96E75D
:10175000806CCDF8010044218DF8001096F84720E8
:10176000012340216846FFF7C9FB306DB0F5804F7B
:1017700092D306F1540110B0BDE8F047FFF7BAB9B3
:10178000D0E91453002BD8BF5F0016DD00F14A08E2
:1017900005F580755F0008EB4309A5F5807400210D
:1017A000207800F029FB0134AC420146F8D128F83A
:1017B000020FC84505F58075EFD1F31996F84780FB
:1017C00004370DF101056C4603F14C064FF03F095B
:1017D0003F2FA6EB070146DC47F0400328468DF873
:1017E00000303A46A3E7446D016D00F14C072246F4
:1017F0003846A400FFF736F9274496F847800DF1E4
:101800000105261D4FF03F096C463F2EA7EB060150
:1018100087DD8DF800902B4601F1300AD1F800C029
:1018200048688A68D1F80CE0C3F80CE010315145E3
:10183000C3F800C058609A6003F11003EED1086845
:101840004A68D1F808C0C3F808C018605A608A898D
:10185000897B99739A814021012342462046FFF7F4
:101860004DFB3F3ED1E78DF800902B4601F1300A49
:10187000D1F800C048688A68D1F80CE0C3F80CE0E1
:1018800010315145C3F800C058609A6003F110034D
:10189000EED108684A68D1F808C0C3F808C01860DB
:1018A0005A608A89897B99739A8140210123424633
:1018B0002046FFF723FB3F3F8AE78DF800902B4639
:1018C00001F1300AD1F800C048688A68D1F80CE00C
:1018D000C3F80CE010315145C3F800C058609A605D
:1018E00003F11003EED108684A68D1F808C0C3F8C4
:1018F00008C018605A608A89897B99739A8140214F
:10190000012342462046FFF7F9FA3F3E04E7012350
:10191000A0F84A30B3E600BF60441155902900009A
:10192000F8B5402190F84720044603460020FFF711
:101930005FFAD0B194F9043027790026B3422670BB
:1019400013DBB4F8443007F03F0504F148001844B5
:101950002A46611D00F0A4FFB4F844303F2F05EB88
:10196000030080B203D8A4F844000020F8BDA4F816
:101970004460F8BD10B50C4C0623204684F847306F
:10198000FFF7CEFF10B12046FFF75CFE074C0723A0
:10199000204684F84730FFF7C3FF20B12046BDE85A
:1019A0001040FFF74FBE10BDAC12002024110020E4
:1019B00000B5E3B00446FFF72FF84FF4C4720021DE
:1019C000684600F065FFE2B200268DF8472003E08C
:1019D000ADF844409DF847206B4640210020FFF7BA
:1019E00007FA0028F6D09DF904309DF804508DF8D0
:1019F000006005F03F04002B0DF105012246E9DBF4
:101A0000BDF8440012AB184400F04AFFBDF8443062
:101A10003F2D1C44A4B2DBD96846ADF84460002CCD
:101A2000D8D0FFF70FFED5E730B5EFF30883054CAC
:101A30002360036883F308884568A847236883F315
:101A4000088830BD9C14002000B583B001460122F7
:101A5000684600F0DDFC08216846FFF767FD03B02B
:101A60005DF804FB2DE9F04FDFF868A2DFF868921B
:101A70009A4C9B4F9B4E9C4DDFF8708200227A233C
:101A800083B0CAF8002089F80030FEF7FFFE40213D
:101A90002046FFF7B3FD4FF0000B04F800B03860AC
:101AA00010B928603460F0E700F044FD3868346015
:101AB000C5F800B00028E8D021465B460A78462ADF
:101AC0002DD8222A37D9A2F1230CBCF1230F32D80A
:101AD000DFE80CF04031313131313131313B3131DE
:101AE000311212121212121212121231313131311C
:101AF0003131353535353535D8F80030303A42EAB0
:101B000003120131C8F8002031602B6838680133B6
:101B100083422B60B9D231680A78462AD1D9662A25
:101B200007D8602A07D9D8F80030573A42EA03129A
:101B3000E7E7FF2AE9D089F800200022E1E7D8F89A
:101B40000030373A42EA0312DBE7D8F80030CAF82F
:101B50000030F2E799F80020473A302A52D8DFE8FF
:101B600012F02001150151005100510051005100A7
:101B700051000A0151005100FE00D50051005100F2
:101B8000AF00A00092007F003100510051005100D1
:101B900051005100510051005100510051005100BD
:101BA000510051007000510051005100510051008E
:101BB0005100650051005100510051005100510089
:101BC00051005600D8F80030DAF800B063B15B4439
:101BD0000193002319461BF8010B00F00DF9019B3E
:101BE0005B450146F7D10346012141480193FFF7C8
:101BF0009DFC019B1846FFF727FF3E480321FFF796
:101C000095FC31687A2389F80030002279E7DAF808
:101C1000003036481B68C8F800300421FFF786FC06
:101C20007A23316889F8003000226AE70121DAF866
:101C30000000FFF77BFC7A23316889F8003000222E
:101C40005FE7DAF8003029481B88C8F80030022125
:101C5000FFF76CFC7A23316889F80030002250E7E6
:101C6000D8F80020DAF80000002A40F0AF80224BBC
:101C7000186003212148FFF759FC7A23316889F85D
:101C8000003000223DE7D8F80000FEF7D5FE032122
:101C90001B48FFF74BFC7A23316889F8003000229B
:101CA0002FE7DAF80030174A934200F09580D8F811
:101CB00000201A607A23316889F80030002220E77A
:101CC0002A211148FFF732FC7A23316889F8003065
:101CD000002216E7881400208C14002040140020F5
:101CE00090140020841400209414002098140020E4
:101CF000042A0000082A000034140020002A0000F2
:101D0000FC2900000CED00E0A02A00000133C21AFB
:101D10002B60D8F80030DAF800009A4228BF1A4643
:101D2000304B01319B461A60316000F0B9FD2E4AFC
:101D3000DBF8003013702A681A44013A2A603268CE
:101D4000591E0A44D8F800103260DBB2994237D8E5
:101D500000BF7A23316889F800300022D1E6D8F834
:101D60000010DAF80000FFF715FC7A23316889F8D3
:101D700000300022C5E6DAF80030D8F800201A70EA
:101D80007A23316889F800300022BAE6DAF80030A8
:101D9000D8F800201A807A23316889F800300022B0
:101DA000AFE6D8F80000FFF73FFE104B1B78002B82
:101DB0003FF427AF01210E48FFF7B8FB316821E758
:101DC000DAF80000C91AFFF729FCC1E7094B9208AD
:101DD0001968FEF753FE4CE7002000F0BBFBDAF871
:101DE000003064E7381400203C140020A0140020C8
:101DF000F829000034140020F0B5184DB5F802E0C1
:101E000007460E46BEF1000F20D1A81E05F5FF744F
:101E100041F22101724608230FFA82FCBCF1000F47
:101E200003F1FF334FEA4202B8BF81EA4C0C9BB288
:101E3000ACBF92B21FFA8CF2002BEDD120F8022F2A
:101E40000EF5807EA0421FFA8EFEE3D187EA1623AC
:101E500035F8130080EA062080B2F0BDA4140020FB
:101E6000B0F5A07F07D2EF2905D84FF4A07C024B34
:101E700011FB0C015A547047E41600202DE9F04F75
:101E80001D4C1E4BCFB221781D4C064618781D4BB9
:101E900007EB870702EB820206F1050A04F52069C9
:101EA00009EB871902EB03081FFA8AFABF013546CE
:101EB000EA1918F801EF224409EB050C01231EEA88
:101EC000030F14BF83468B4682F800B002F5A07260
:101ED0005B006245DBB2F2D10135ADB2AA45E7D174
:101EE000B31D9BB21F443C444B44217004F5A074C5
:101EF0009C42FAD1BDE8F08FE1160020E0010020FD
:101F0000E41600209B2A000030B41E4A1E4B517B71
:101F10001E481F4D41F001015173536390631188B6
:101F200089B241F2014441F481714FF6FF70118092
:101F3000588018491C805A88086815FA82F25A603D
:101F4000283003F110029860DA6042F601425A82AA
:101F50001C825A88598A89B211FA82F20E4909689C
:101F600000242A445A619861DC614C714B7B0B4A16
:101F70000B4C43F002034FF000404B730C601060B9
:101F800030BC704700A00041C0160020B0160020F1
:101F9000E4160020D8010020D401002000E100E078
:101FA000000D2000044B05491A68937B0120DBB229
:101FB00093730870704700BFD4010020E016002022
:101FC0002DE9F0478D4F8E4B3C688E4894F8009079
:101FD0004FF480714FF40044C3F894108022C3F88A
:101FE00094404FF40144C3F888404FF08041C3F857
:101FF0008820C3F894204022C0F8F82CD1F81C287F
:1020000042F02002C1F81C287F49804AC3F8A8206A
:102010000B681A68012060F383021A600B681A6863
:10202000042060F30A221A600A68136843F400333C
:1020300013600B6802221A736422DA7650225A77F0
:102040001A6842F002021A600B681A69900704D5F8
:1020500000BF0B681A699207FAD45A796C4C0121B7
:1020600061F347125A71142000F0BEF9FFF74CFFDC
:10207000644B4FF080424021C3F8081DD2F820384D
:102080005F4943F00103C2F82038624BC1F8A83021
:1020900023681A68032161F384021A6022681368B6
:1020A00023F0706313602268136823F08043136089
:1020B0002268136823F0005313602268136823F02A
:1020C000805313602268136843F44013136022683E
:1020D000136823F44033136023685A6842F40052B3
:1020E0005A605A6822F400325A609A6822F03F021D
:1020F0009A6000221A731A6842F002021A6023687A
:10210000DB699E0704D500BF2368DB699D07FAD40D
:10211000142000F069F9B9F1000F5DD03A68384E2B
:102120004FF001084FF4004AC6F894A0236812F853
:102130000810187E08F10105C007ADB204D400BF35
:1021400023681A7ED207FAD5CA0842EA4112D2B2EF
:102150009A621B7E980704D400BF23681B7E9907F0
:10216000FAD5B9F1640F40D8B9F1010FC6F898A0BB
:1021700028D009F1FF30002123683A6893F818E06D
:1021800005EB010C1FFA8CFC1EF0010F12F80CC0BD
:1021900004D100BF23681A7ED207FAD54FEADC02C9
:1021A00042EA4C12D2B29A621B7E9A0704D400BF54
:1021B00023681B7E9B07FAD501318142DCD1C844DC
:1021C0001FFA88F53A6812F8059005F101081FFA20
:1021D00088F8B9F1000FA7D10F4B10481978BDE866
:1021E000F0474FF4963200F053BB7820A9F1640910
:1021F00000F0FAF85FFA89F9B6E700BFDC010020C9
:102200000080004100100040D00100200002015475
:10221000D801002000704152E1160020E416002091
:1022200010B41D490B781BB100BF0B78002BFBD1FC
:102230001A4B1B4A00240C704FF480704FF400417D
:10224000C3F89400C3F894101368197ECC0704D423
:1022500000BF1368197EC807FAD5852199621B7ED5
:10226000990704D400BF13681B7E9B07FAD50B4B5C
:102270000C494FF480744FF40040C3F89840C3F801
:102280009800096808480B6843F002030B60136864
:1022900002789A6210BC7047E0160020008000416E
:1022A000D8010020D4010020E416002070B51446A7
:1022B00012789AB1001BCD00C6B23019C0B200EB43
:1022C00040004000B0F59D7F294603D2E72D01D89C
:1022D000FFF7D4FD14F8012F002AEED170BD00BF26
:1022E0002DE9F04F824685B00846997893F800E0D2
:1022F00093465A78019200293AD04A1ED2B2D91C8C
:102300008A189F1C0025DFF8BC8003922C46CDF86C
:1023100000E03E46029016F8012F11062BD49DF8DE
:102320000890002702E0072F1FD03278D8F800303D
:102330003A4112F0010F04EB0A0009EB050114BF4A
:102340005A460022C9B280B298470134009BE4B2D9
:10235000A34207F10107E6D1019B0135EDB2AB4283
:1023600006D0072F4FF00004DFD1039B9E42D2D14D
:1023700005B0BDE8F08F9306F7D09DF808900027D0
:1023800004E0327802F03F019942EED912F04002A7
:1023900004EB0A0009EB050118BF5A46D8F80030D3
:1023A000C9B280B298470134009AE4B20137A24220
:1023B000FBB2E6D1019A0135EDB2AA42D8D0002491
:1023C000DFE700BFCC010020BFF34F8F0449054B6E
:1023D000CA6802F4E0621343CB60BFF34F8FFEE79D
:1023E00000ED00E00400FA05084A117841F6AA233E
:1023F00041F6D102002918BF134603FB00F0012863
:1024000003D9012301339842FCD17047E4420120F3
:1024100010B484461C24002009E0092B17D9373357
:10242000043C0CF80030231D00F1010015D021FA06
:1024300004F303F00F03002AEFD1002BEDD144B1D8
:10244000043C60B921FA04F303F00F03F5E73033DD
:10245000E6E730230CF80030013010BC7047302321
:102460000CF800300130E2E708B5034B034AC3F82B
:10247000FC2FFFF7A9FF00BF00F00220EF6926F054
:1024800038B50B4A136863B90A480B4D01684FF41D
:10249000FA6414602C68013101600CB1A14203D2CE
:1024A00038BD013B136038BD2B60FFF7DDFF00BF77
:1024B000F8420120F4420120F042012008B5034B0C
:1024C000034AC3F8FC2FFFF77FFF00BF00F0022094
:1024D000EF6916F0124A1349134813684FF0010CC4
:1024E00081F800C001686344136011B18B4214D0BD
:1024F0007047DBB2002BFBD110B40C480C4C0378B6
:102500002278A3F10A01C9B2F02902D95242D2B20B
:1025100022701344037010BC70470023036070479F
:10252000EC420120E4420120E8420120E1010020C8
:10253000E2010020044A054B11681B6899423CBF28
:1025400003F5FA6313607047E8420120EC42012072
:10255000704700BF704700BF6F4B9B68002B40F077
:10256000A1806E4A70B513709368002BFCD16C4A41
:10257000116963F341011161D3685907FCD51369EF
:10258000C82161F3174313611369654923F00C03F4
:102590001361136943F002031361CB68DB07FCD5B9
:1025A0005F4AD3689E07FCD45E4B1A78D5077AD56C
:1025B0005B4C6420FFF718FFE3689807F9D4584A8A
:1025C000136923F002031361D3685907FCD513691B
:1025D000012161F383031361136943F00203136163
:1025E000FFF7B6FF4FF480435C68A4F58042B2F574
:1025F000F82F15D84C4AD3F86832934273D0494B20
:102600001B7813F001035CD0484B0022C3F8FC2F69
:102610004FF480431A6882F308883F4A936020474A
:10262000434E00F099F8BFF35F8F62B6FEF76EFF7E
:10263000404D414C4020FFF78DFF0A232B7007E0EF
:10264000012323702378002B31D12378002B33D042
:10265000FEF7B8FC0028F5D0237803F0FF02002B2A
:10266000EED14FF480403260FFF774FF01232B70EE
:10267000FFF7A6FC314BF92250219020FFF730FEE6
:102680002F4A0F211420FFF711FE2E4A112114208A
:10269000FFF70CFE2C4A13211420FFF707FEFFF76B
:1026A000BFFDCDE7FEE71B785C0788D580E7FFF725
:1026B000D9F9FFF7D7F9FAE7FF2300BF013BFCD1B7
:1026C000C6E71A4A2149D2F8FC0F88421FD0D2F837
:1026D000FC0F1F4B984297D0C2F8FC1F4FF4FA70C2
:1026E000FFF782FE90E70F4B1B78DB0705D40F4AFC
:1026F000174BD2F8FC2F9A4281D00C4A1449154B43
:10270000C2F8FC1F1B680A4E3233336089E7084E5B
:10271000C2F8FC3F85E700BF00ED00E0002000406C
:1027200000180040000C00407CB0EE8700F0022052
:10273000F0420120E2010020FC420120CC2A0000EE
:102740000C2A00001C2A00002C2A0000EF6916F059
:10275000EF6926F0F442012010B42C492C4A0B8872
:1027600043F004030B80137843F0010313705368A4
:10277000DB07FCD440F604132548136243685C076A
:10278000C3F38001FAD4234A234B1177936292F862
:102790002C30D906C3F30010F9D41E4982F820006A
:1027A00091F82C305B07FBD40B7F1A4A43F00203ED
:1027B0000B7792F82C309C07FBD4536A154953626F
:1027C00091F82C301807FBD49823124A81F8203056
:1027D0001369D905FCD50E4A40F6063313625368D7
:1027E000C3F380015B07FAD40C480D4A4FF0E02395
:1027F0000124447140F2E734E0205C6182F8230058
:10280000072299611A6110BC704700BF0040004167
:10281000001C00400010004080BB01040008004084
:1028200000ED00E0FFF756BEFEE700BF1149124879
:10283000814208B509D0114A904206D2013A121AD3
:1028400022F00302043200F02BF80D480D4A9042AA
:1028500007D2013A121A22F003020432002100F0DA
:1028600017F8094B094A23F07F039360FFF774FEC2
:10287000FEE700BF7C2D000000000020E4010020E6
:10288000F0010020004301200000000000ED00E006
:1028900002440346934200D1704703F8011BF9E755
:1028A0000A44914200F1FF3300D1704710B511F88E
:1028B000014B03F8014F9142F9D110BD034613F8C3
:1028C000012B002AFBD1181A01387047EB3C9055B8
:1028D0004632205546322000020101000240007EAF
:1028E0003EF83F0001000100000000000000000071
:1028F0008000294200420052494D4552424F4F54F8
:10290000000046415431362020200000494E464FF9
:102910005F5546325458540090290000494E4445B2
:102920005820202048544D003C2900004355525265
:10293000454E542055463200000000003C21646F93
:1029400063747970652068746D6C3E0A3C68746DC0
:102950006C3E3C626F64793E3C7363726970743E96
:102960000A6C6F636174696F6E2E7265706C61635F
:1029700065282222293B0A3C2F7363726970743EDA
:102980003C2F626F64793E3C2F68746D6C3E0A0088
:1029900055463220426F6F746C6F616465722076A9
:1029A000332E31362E302053464857524F0D0A4DA4
:1029B0006F64656C3A2052696D6572205342430D15
:1029C0000A426F6172642D49443A2052696D657202
:1029D0005F5342435F5243310D0A000052696D65F7
:1029E00072205342430000005365736120446573B5
:1029F00069676E20496E630006000000580A0D00EA
:102A0000590A0D005A000000230A0D0052494D4595
:102A100052205342432C205243310000554632206D
:102A2000626F6F746C6F61646572000076332E3173
:102A3000362E302053464857524F00000000000801
:102A400000003E800200020000000000E8290000B3
:102A5000DC2900009C0D00200697FF0901A101154B
:102A60000026FF0075089540090181029540090183
:102A7000910295010901B102C0000000120110028B
:102A8000EF020140EB0302240142010203010000B6
:102A9000FC6180001060800014608000186080007D
:102AA00076312E31205B41726475696E6F3A5859E8
:102AB0005A5D204465632031342032303234203175
:102AC000323A30333A32330A0D00000020206A785F
:102AD000D630991378D11470D21830913160916149
:102AE00060018B6160926160914141D36070D1401F
:102AF000618907884301708B63016001300C8A078C
:102B000060188C07300C8C07189C7BD876D976D946
:102B1000069A631F1F7C3104104288631F1F043014
:102B20007C734F8803104104307C734F1F463F7EF7
:102B300079230196199843D9000000000000000095
:102B40000000005F00000007000700147F147F14DE
:102B5000242A7F2A12231308646236495522500022
:102B600005030000001C2241000041221C00140843
:102B70003E081408083E0808005030000008080805
:102B80000808006060000020100804023E5149451A
:102B90003E00427F400042615149462141454B3150
:102BA0001814127F1027454545393C4A49493001E0
:102BB000710905033649494936064949291E006607
:102BC0006600000056360000081422410014141458
:102BD00014140041221408020151090632497941B6
:102BE0003E7E1111117E7F494949363E41414122C5
:102BF0007F4141221C7F494949417F090909013E22
:102C00004149497A7F0808087F00417F4100204000
:102C1000413F017F081422417F404040407F020C29
:102C2000027F7F0408107F3E4141413E7F09090930
:102C3000063E4151215E7F091929464649494931DD
:102C400001017F01013F4040403F1F2040201F3FC6
:102C50004038403F63140814630708700807615147
:102C6000494543007F4141000204081020004141D2
:102C70007F00040201020420202020200001020421
:102C80000020545454787F48444438384444442005
:102C9000384444487F3854545418087E0901020CC3
:102CA0005252523E7F0804047800447D4000204088
:102CB000443D007F1028440000417F40007C0478A0
:102CC00004787C0804047838444444387C14141490
:102CD00008081414187C7C08040408485454542030
:102CE000043F4440203C4040207C1C2040201C3CB1
:102CF0004030403C44281028440C5050503C446420
:102D0000544C44000836410000007F00000041366A
:102D100008001008081008006511023660023A0524
:102D200006B20C0C00333302B73502BB1502C02CBF
:102D300002C20102C30B02C42002C60F03D0A4A129
:102D4000052A0000013F052B000000EF01210FE0E4
:102D5000F0000404040529333E38121228300FE134
:102D6000F0070A0D0B0728333E361414293265117B
:042D70000129000035
:082D740048FBFF7F0100000095
:102D7C0000800202200000000000000000000000A3
:102D8C000000000000000000000000000000000037
:102D9C00312E30305342535500000000000000002B
:102DAC000000000000C20100000008000A00000042
:102DBC0000000306AA00080002000400A000140092
:102DCC00030057494E55534200000000000000001C
:102DDC0000008400040007002A004400650076000F
:102DEC0069006300650049006E00740065007200A4
:102DFC00660061006300650047005500490044000F
:102E0C007300000050007B00390032004300450085
:102E1C0036003400360032002D00390043003700F4
:102E2C0037002D0034003600460045002D003900D7
:102E3C003300330042002D003300310043004200C8
:102E4C003900430035004200420033004200390093
:102E5C007D00000000000000050F3900021810056D
:102E6C000038B60834A909A0478BFDA0768815B6A2
:102E7C0065000101001C100500DF60DDD88945C725
:102E8C004C9CD2659D9E648A9F00000306AA00029A
:102E9C0000000000090299000501008032080B00B7
:102EAC0002020201000904000001020201000524D3
:102EBC000010010424020605240600010524010368
:102ECC0001070583030800FF09040100020A000042
:102EDC0000070581024000000705020240000009BE
:102EEC000402000208065000070584024000000797
:102EFC00050502400000090403000203000000095C
:102F0C002100010001222100070586034000010772
:102F1C000506034000010904040002FF2A01000712
:102F2C00058703400001070507034000010000006E
:102F3C00090403000203000003000000611E0000EE
:102F4C000014004240A0004100000043182D000076
:042F5C00FCC80100AC
:103FF00000000000B11900007505000090290000C4
:00000001FF
